:020000040000FA
:1000000060020020F1020000F9020000FB02000083
:10001000FD020000FF0200000103000000000000DC
:1000200000000000000000000000000003030000CA
:1000300005030000000000000703000009030000A2
:100040000B0300000D0300000F030000110300006C
:10005000130300001503000017030000190300003C
:100060001B0300001D0300001F030000210300000C
:1000700023030000250300002703000029030000DC
:100080002B0300002D0300002F03000031030000AC
:10009000330300003503000037030000390300007C
:1000A0003B0300003D0300003F030000410300004C
:1000B000430300004503000047030000490300001C
:1000C0004B0300004D0300004F03000051030000EC
:1000D00053030000550300005703000059030000BC
:1000E0005B0300005D030000000000005F030000F0
:1000F0006103000063030000650300006703000064
:10010000690300006B0300006D0300006F03000033
:1001100000000000000000007103000073030000F5
:100120007503000077030000790300007B030000E3
:100130007D0300007F0300008103000083030000B3
:1001400000000000000000000000000000000000AF
:100150008503000087030000890300008B03000073
:10016000000000000000000000000000000000008F
:10017000000000000000000000000000000000007F
:10018000000000000000000000000000000000006F
:10019000000000000000000000000000000000005F
:1001A000000000000000000000000000000000004F
:1001B0008D0300008F0300009103000093030000F3
:1001C0009503000097030000990300009B030000C3
:1001D0009D0300009F030000A1030000A303000093
:1001E000A5030000A7030000A90300000000000011
:1001F00000000000AB030000AD030000AF030000EF
:10020000B1030000B3030000000000000000000084
:10021000B5030000B7030000B9030000BB030000F2
:10022000BD030000BF030000C1030000C3030000C2
:10023000C5030000C7030000C9030000CB03000092
:10024000CD030000CF030000D1030000D303000062
:10025000D5030000D7030000D9030000DB03000032
:10026000DD030000DF030000E103000000F002F8FE
:1002700000F02EF80AA090E8000C82448344AAF112
:100280000107DA4501D100F023F8AFF2090EBAE810
:100290000F0013F0010F18BFFB1A43F001031847BA
:1002A000E8090000F80900000023002400250026CA
:1002B000103A28BF78C1FBD8520728BF30C148BFC9
:1002C0000B6070471FB500F0C9FC1FBD10B510BD15
:1002D00000F09BF81146FFF7F5FF00F0F3FB00F08C
:1002E000B9F803B4FFF7F2FF03BC00F0C1F8000057
:1002F0003F4880473F480047FEE7FEE7FEE7FEE74E
:10030000FEE7FEE7FEE7FEE7FEE7FEE7FEE7FEE7C5
:10031000FEE7FEE7FEE7FEE7FEE7FEE7FEE7FEE7B5
:10032000FEE7FEE7FEE7FEE7FEE7FEE7FEE7FEE7A5
:10033000FEE7FEE7FEE7FEE7FEE7FEE7FEE7FEE795
:10034000FEE7FEE7FEE7FEE7FEE7FEE7FEE7FEE785
:10035000FEE7FEE7FEE7FEE7FEE7FEE7FEE7FEE775
:10036000FEE7FEE7FEE7FEE7FEE7FEE7FEE7FEE765
:10037000FEE7FEE7FEE7FEE7FEE7FEE7FEE7FEE755
:10038000FEE7FEE7FEE7FEE7FEE7FEE7FEE7FEE745
:10039000FEE7FEE7FEE7FEE7FEE7FEE7FEE7FEE735
:1003A000FEE7FEE7FEE7FEE7FEE7FEE7FEE7FEE725
:1003B000FEE7FEE7FEE7FEE7FEE7FEE7FEE7FEE715
:1003C000FEE7FEE7FEE7FEE7FEE7FEE7FEE7FEE705
:1003D000FEE7FEE7FEE7FEE7FEE7FEE7FEE7FEE7F5
:1003E000FEE7000004480549034A054B704700003A
:1003F0002D0A00006D020000600000206002002055
:1004000060000020704770477047754600F02CF878
:10041000AE4605006946534620F00700854618B0F1
:1004200020B5FFF7DFFFBDE820404FF000064FF09A
:1004300000074FF000084FF0000B21F00701AC4619
:10044000ACE8C009ACE8C009ACE8C009ACE8C00938
:100450008D46704710B50446AFF300802046BDE8D6
:100460001040FFF73EBF000000487047000000202A
:1004700001491820ABBEFEE726000200704718B500
:1004800004464FF0E020006940F001004FF0E02109
:100490000861204600F088FA00BF684600F092FA32
:1004A0009DF800000028F8D04FF0E020006920F00F
:1004B00001004FF0E021086118BD000070B5014651
:1004C00048798A79714B1B680124844023436F4C1F
:1004D0002360042803DA030303F1402304E0031F2D
:1004E0006B4CA51405FB0343D3F800440123934050
:1004F0001C43042803DA030303F1402304E0031F31
:10050000634DAE1406FB0353C3F800440B79EBB9FB
:10051000042803DA030303F1402304E0031F5C4CC7
:10052000A51405FB0343D3F80045012393401C4366
:10053000042803DA030303F1402304E0031F544DAE
:10054000AE1406FB0353C3F8004540E00B79012BC2
:100550001DD1042803DA030303F1402304E0031F41
:100560004B4CA51405FB0343D3F8044501239340EA
:100570001C43042803DA030303F1402304E0031FB0
:10058000434DAE1406FB0353C3F804451FE00B793B
:10059000022B1CD1042803DA030303F1402304E0F7
:1005A000031F3B4CA51405FB0343D3F80845012367
:1005B00093401C43042803DA030303F1402304E0BF
:1005C000031F334DAE1406FB0353C3F80845CB7825
:1005D000EBB9042803DA030303F1402304E0031F0B
:1005E0002B4CA51405FB0343D3F81045012393407E
:1005F0001C43042803DA030303F1402304E0031F30
:10060000234DAE1406FB0353C3F810451FE0CB780F
:10061000012B1CD1042803DA030303F1402304E077
:10062000031F1B4CA51405FB0343D3F814450123FA
:1006300093401C43042803DA030303F1402304E03E
:10064000031F134DAE1406FB0353C3F814450428CF
:1006500003DA030303F1402304E0031F0C4CA51449
:1006600005FB0343D3F81C45012393401C43042896
:1006700003DA030303F1402304E0031F044DAE1427
:1006800006FB0353C3F81C4570BD000008E60F408D
:100690000040024070B5014648798A79042803DA9F
:1006A000030303F1402304E0031F0B4CA51405FBD7
:1006B0000343D3F8FC43012393409C43042803DA0B
:1006C000030303F1402304E0031F034DAE1406FBB4
:1006D0000353C3F8FC4370BD0040024070B50146AF
:1006E00048798A79042803DA030303F1402304E0FC
:1006F000031F0B4CA51405FB0343D3F8FC43012354
:1007000093401C43042803DA030303F1402304E06D
:10071000031F034DAE1406FB0353C3F8FC4370BD27
:100720000040024070B50246507991798E4B1B68AB
:100730000124844023438C4C2360042803DA030300
:1007400003F1402304E0031F884CA51405FB034379
:10075000D3F8004401238B409C43042803DA0303AD
:1007600003F1402304E0031F804DAE1406FB035346
:10077000C3F80044042803DA030303F1402304E030
:10078000031F7A4CA51405FB0343D3F8204401232F
:100790008B409C43042803DA030303F1402304E065
:1007A000031F724DAE1406FB0353C3F82044042804
:1007B00003DA030303F1402304E0031F6B4CA51489
:1007C00005FB0343D3F8284501238B409C430428B1
:1007D00003DA030303F1402304E0031F634DAE1467
:1007E00006FB0353C3F828451379EBB9042803DA51
:1007F000030303F1402304E0031F5C4CA51405FB35
:100800000343D3F8004501238B401C43042803DA3B
:10081000030303F1402304E0031F544DAE1406FB11
:100820000353C3F8004540E01379012B1DD1042880
:1008300003DA030303F1402304E0031F4B4CA51428
:1008400005FB0343D3F8044501238B401C430428D4
:1008500003DA030303F1402304E0031F434DAE1406
:1008600006FB0353C3F804451FE01379022B1CD188
:10087000042803DA030303F1402304E0031F3B4C85
:10088000A51405FB0343D3F8084501238B401C4303
:10089000042803DA030303F1402304E0031F334D6C
:1008A000AE1406FB0353C3F80845D378EBB904280C
:1008B00003DA030303F1402304E0031F2B4CA514C8
:1008C00005FB0343D3F8104501238B401C43042848
:1008D00003DA030303F1402304E0031F234DAE14A6
:1008E00006FB0353C3F810451FE0D378012B1CD13E
:1008F000042803DA030303F1402304E0031F1B4C25
:10090000A51405FB0343D3F8144501238B401C4376
:10091000042803DA030303F1402304E0031F134D0B
:10092000AE1406FB0353C3F81445042803DA03038B
:1009300003F1402304E0031F0C4CA51405FB034303
:10094000D3F81C4501238B401C43042803DA03031E
:1009500003F1402304E0031F044DAE1406FB0353D0
:10096000C3F81C4570BD000008E60F40004002407F
:1009700070B50A4641798379042903DA0C0304F13E
:10098000402404E00C1F074DAE1406FB0454D4F8B9
:10099000FC4301259D402C400CB1012400E00024C3
:1009A000147070BD004002404FF47A72B0FBF2F256
:1009B000034B02FB03F14FF0E0225161704700004E
:1009C0000024F4004FF0E021096901F4803109B1FD
:1009D000012100E000210170704740B94FF0E02292
:1009E000126922F004024FF0E0231A6109E00128A5
:1009F00007D14FF0E022126942F004024FF0E023E9
:100A00001A61012908D14FF0E022126942F0020276
:100A10004FF0E0231A6108E039B94FF0E022126983
:100A200022F002024FF0E0231A6170471B49096867
:100A300041F47001194A116019491A4A11671A499B
:100A400011661A4911661A491167002000E0401C1E
:100A5000B0F57A7FFBD31749124A11661649116720
:100A6000002000E0401CB0F57A7FFBD313490D4A0B
:100A7000116600BF0B49096D01F040014029F9D111
:100A80000F49084A11664FF0C0711167002000E05D
:100A9000401C42F210718842FAD3704788ED00E0A2
:100AA0001028800700E00F40D13A8E07422D9E01AA
:100AB00000288001420D9E0100088001420DDE01E8
:100AC0004205DE018AB0644803C8CDE908016249E5
:100AD000083103C9CDE906015F49103103C9CDE9E9
:100AE00004015D49183103C9CDE9020108A8FFF7E7
:100AF000E5FC04A8FFF7E2FC06A8FFF7DFFC02A86C
:100B0000FFF710FE00210120FFF767FFA3E003E0DD
:100B100001A902A8FFF72CFF9DF804000028F7D0D8
:100B200003E001A902A8FFF723FF9DF804000128B4
:100B3000F7D008A8FFF7D2FD4FF47A70FFF79FFCBB
:100B400008A8FFF7A7FD03E001A902A8FFF710FF1F
:100B50009DF804000028F7D003E001A902A8FFF7E0
:100B600007FF9DF804000128F7D008A8FFF792FDC1
:100B700004A8FFF7B3FD4FF47A70FFF780FC04A8D8
:100B8000FFF788FD03E001A902A8FFF7F1FE9DF839
:100B900004000028F7D003E001A902A8FFF7E8FE4F
:100BA0009DF804000128F7D008A8FFF773FD04A8FA
:100BB000FFF770FD06A8FFF791FD4FF47A70FFF77D
:100BC0005EFC06A8FFF766FD03E001A902A8FFF797
:100BD000CFFE9DF804000028F7D003E001A902A889
:100BE000FFF7C6FE9DF804000128F7D008A8FFF71C
:100BF00075FD04A8FFF772FD06A8FFF76FFD4FF41F
:100C00007A70FFF73CFC08A8FFF744FD04A8FFF743
:100C100041FD06A8FFF73EFD03E001A902A8FFF78A
:100C2000A7FE9DF804000028F7D003E001A902A860
:100C3000FFF79EFE9DF804000128F7D008A8FFF7F3
:100C400029FD04A8FFF726FD06A8FFF723FD4FF4B2
:100C50007A70FFF714FC5AE7680C00004FF0407000
:100C6000E1EE100A704700000101000002050100DA
:100C7000010100000205020001010000020503005D
:100C80000000000000050400980C00000000002097
:080C900060020000A802000050
:04000005000002F104
:00000001FF
